:020000040800F2
:10000000E81600205D030008B9030008B9030008E2
:10001000B9030008B9030008B90300080000000094
:10002000000000000000000000000000B90300080C
:10003000B903000800000000B9030008F505000836
:10004000B9030008B9030008B9030008B9030008A0
:10005000B9030008B9030008B9030008B903000890
:10006000B9030008B9030008B9030008B903000880
:10007000B9030008B9030008B9030008B903000870
:10008000B9030008B9030008B9030008B903000860
:10009000B9030008B9030008B9030008B903000850
:1000A000B9030008B9030008B9030008B903000840
:1000B000B9030008B9030008B9030008B903000830
:1000C000B9030008B9030008B9030008B903000820
:1000D000B903000881080008B9030008B903000843
:1000E000B9030008B9030008B903000800000000C4
:1000F0000000000000000000000000000000000000
:1001000000000000000000005FF808F180B500AFBB
:10011000154A154B1B6843F0010313601249124B3B
:100120005A68124B13404B600F4A0F4B1B6823F069
:10013000847323F4803313600B4A0B4B1B6823F446
:1001400080231360084A084B5B6823F4FE03536066
:10015000054B4FF41F029A6000F07AF8044B4FF001
:1001600000629A6080BD00BF001002400000FFF8EE
:1001700000ED00E080B485B000AF0023FB600023F9
:10018000BB6000237B602D4B5B6803F00C03FB60BE
:10019000FB68042B07D0082B09D0002B34D1284B47
:1001A000284A1A6034E0264B264A1A6030E0234B76
:1001B0005B6803F47013BB60204B5B6803F480330F
:1001C0007B60BB689B0C0233BB607B68002B06D155
:1001D000BB681D4A02FB03F3194A136013E0174B77
:1001E0005B6803F40033002B06D0BB68164A02FBA1
:1001F00003F3134A136006E0BB68124A02FB03F3E1
:100200000F4A136004E003E00D4B0E4A1A6000BF72
:100210000A4B5B6803F0F0031B090C4AD35CDBB2AA
:10022000FB60074B1A68FB6822FA03F3044A136069
:100230001437BD465DF8047B704700BF00100240D4
:100240000000002000127A0000093D000400002098
:1002500080B500AF00F002F880BD00BF80B483B06D
:1002600000AF00237B6000233B603A4A394B1B6898
:1002700043F480331360374B1B6803F400333B6057
:100280007B6801337B603B68002B03D17B68B3F54F
:10029000A06FF0D12F4B1B6803F40033002B02D06A
:1002A00001233B6001E000233B603B68012B4BD105
:1002B000294A294B1B6843F010031360264A264B3A
:1002C0001B6823F003031360234A234B1B6843F08E
:1002D000020313601F4A1F4B5B6853601D4A1D4B8E
:1002E0005B6853601B4A1B4B5B6843F4806353603D
:1002F000184A184B5B6823F47C135360154A154B5E
:100300005B6843F4E8135360124A124B1B6843F0D6
:100310008073136000BF0F4B1B6803F00073002B4A
:10032000F9D00C4A0B4B5B6823F003035360094A76
:10033000084B5B6843F00203536000BF054B5B68EA
:1003400003F00C03082BF9D10C37BD465DF8047B94
:10035000704700BF001002400020024080B582B00C
:1003600000AF104B7B60104B3B6007E03B681A1DF1
:100370003A607A68111D796012681A603B680B4A0E
:100380009342F3D30A480B494FF000028842B8BFAA
:1003900040F8042BFADBFFF7B9FE01F04BFC0837FD
:1003A000BD4680BD102E0008000000205400002033
:1003B00058000020E412002080B400AFFEE700BF28
:1003C00080B489B000AF786039600023FB610023FE
:1003D0003B610023BB610023FB6000237B610023A2
:1003E000BB603B68DB7803F00F03FB613B68DB78A5
:1003F00003F01003002B05D03B689B781A46FB697D
:100400001343FB613B681B88DBB2002B44D07B6845
:100410001B687B610023BB6138E0BB69012202FAE3
:1004200003F3FB603B681B881A46FB6813403B6183
:100430003A69FB689A4226D1BB699B00FB60FB6866
:100440000F2202FA03F3BB60BB68DB437A691340F7
:100450007B61FB68FA6902FA03F37A6913437B61F3
:100460003B68DB78282B05D1BB6901229A407B6869
:100470005A6108E03B68DB78482B04D1BB69012254
:100480009A407B681A61BB690133BB61BB69072B6A
:10049000C3D97B687A691A603B681B88FF2B4AD9ED
:1004A0007B685B687B610023BB613EE0BB6908330E
:1004B0001A4601239340FB603B681B881A46FB6881
:1004C00013403B613A69FB689A422BD1BB699B00A0
:1004D000FB60FB680F2202FA03F3BB60BB68DB43DF
:1004E0007A6913407B61FB68FA6902FA03F37A695F
:1004F00013437B613B68DB78282B07D1BB6908334A
:100500001A46012303FA02F27B685A613B68DB78E2
:10051000482B07D1BB6908331A46012303FA02F2BC
:100520007B681A61BB690133BB61BB69072BBDD90D
:100530007B687A695A602437BD465DF8047B704752
:1005400080B483B000AF78600B467B807A887B688C
:100550001A610C37BD465DF8047B704780B483B0E8
:1005600000AF03463960FB7197F90730002B0BDAB7
:100570000D49FB7903F00F03043B3A68D2B2120134
:10058000D2B20B441A7609E0084997F907303A6865
:10059000D2B21201D2B20B4483F800230C37BD460D
:1005A0005DF8047B704700BF00ED00E000E100E073
:1005B00080B582B000AF78607B68B3F1807F01D3F3
:1005C000012311E00A4A7B6823F07F43013B53601B
:1005D0004FF0FF300F21FFF7C1FF054B00229A605B
:1005E000034B07221A60002318460837BD4680BD1A
:1005F00010E000E080B400AF044B1B680133034AF5
:100600001360BD465DF8047B704700BF44010020C5
:1006100080B500AF074B00221A60FFF7ABFD064B19
:100620001B68064AA2FB03239B091846FFF7C0FF7D
:1006300080BD00BF4401002000000020D34D6210A7
:1006400080B485B000AF78600023FB6002E0FB68F7
:100650000133FB60FA687B689A42F8DB1437BD46C9
:100660005DF8047B704700BF80B400AF134A134BA2
:100670009B6943F480439361104A104B9B6943F09C
:10068000040393610D4A0D4B9B6943F0080393618A
:100690000A4A0A4B9B6943F001039361074A074BDF
:1006A000DB6943F40033D361044A044BDB6943F450
:1006B0000013D361BD465DF8047B70470010024013
:1006C00080B582B000AF0423FB714FF48063BB8020
:1006D0000223BB713B1D1C481946FFF771FE18230E
:1006E000FB714FF40073BB803B1D17481946FFF7A1
:1006F00067FE0423FB710823BB803B1D124819468B
:10070000FFF75EFE1823FB710423BB803B1D0E48E0
:100710001946FFF755FE1023FB714FF4E043BB80F1
:100720003B1D0A481946FFF74BFEC023BB8002233E
:10073000BB711C23FB713B1D04481946FFF740FEAB
:100740000837BD4680BD00BF00080140000C0140D5
:1007500080B584B000AF4FF461433B600023BB80A1
:100760000023FB8000233B810023BB810C237B8182
:100770003B460A48194601F05DFB3B4608481946CE
:1007800001F058FB0548012101F00EFC044801214D
:1007900001F00AFC1037BD4680BD00BF00380140A3
:1007A0000044004080B582B000AF4FF4E06001F03B
:1007B000FDFC25233B7100237B710123BB710123C9
:1007C000FB713B1D184601F003FD0837BD4680BD97
:1007D00080B584B000AF0D48012101F01DFE00235B
:1007E000BB804BF6FF73FB80094B3B6000233B81D2
:1007F0004FF480637B814FF48043BB813B460348C9
:10080000194601F047FD1037BD4680BD0054004039
:10081000A086010080B485B000AF0023BB6025E056
:10082000BB689BB21B02FB810823FB7113E0FB89B1
:100830001BB2002B09DAFB895B009BB283F4815366
:1008400083F001039BB2FB8102E0FB895B00FB812B
:10085000FB79013BFB71FB79002BE8D10749BB68B1
:10086000FA8921F81320BB680133BB60BB68FF2BFA
:10087000D6DD1437BD465DF8047B7047500100207B
:1008800080B582B000AF2E4840F2255101F032FC15
:100890000346002B50D02A4B9B889BB2FB71294BFF
:1008A0001B68002B0ED1FB797B2B0BD1254B012232
:1008B0001A60254B1B685A1C23490A602349FA79A0
:1008C000CA5439E01F4B1B68012B11D11E4B1B680A
:1008D0005A1C1D490A601D49FA79CA54FB797D2BBF
:1008E0002AD11B4B02221A60164B02221A6023E007
:1008F000144B1B68022B1FD1164B1B881B029AB28C
:10090000FB799BB213439BB29AB2124B1A80104BE5
:100910001B68013B0E4A13600D4B1B68002B0BD16B
:10092000084B00221A600C4B01221A60044840F266
:100930002551002201F058FB0837BD4680BD00BF9D
:10094000003801405C0000207800002050030020A7
:10095000580000204C0100206000002080B582B0CB
:1009600000AF42F21070FFF76BFE80233B80022342
:10097000BB701423FB703B4623481946FFF720FD4C
:1009800040233B800223BB701423FB703B461E4870
:100990001946FFF715FD1C4B80221A6100237B606E
:1009A0000EE0194B40221A610220FFF749FE164B58
:1009B00040225A610220FFF743FE7B6801337B60CF
:1009C0007B68092BEDD9104B80225A610220FFF77A
:1009D00037FE0D4B40221A610220FFF731FE0A4B11
:1009E00080221A610220FFF72BFEC0233B800223E6
:1009F000BB701C23FB703B4603481946FFF7E0FC25
:100A00000837BD4680BD00BF000C014080B582B0F4
:100A100000AF0346FB7101E0FFF7A0FF35484FF43C
:100A2000003101F005FE0346002BF5D131480121CC
:100A300001F012FD4FF47A70FFF702FE2D482E49A7
:100A400001F0F6FD0346002BF0D02C4B00221A805B
:100A50002A4B1B885A1C91B2284A1180032B02D1C1
:100A60004FF0FF3341E02348E021002201F072FD06
:100A70004FF47A70FFF7E4FD1E48214901F0A8FD0C
:100A80000346002BE4D01D4B00221A801B4B1B8811
:100A90005A1C91B2194A1180032B02D14FF0FF3337
:100AA00023E0FB79012202FA03F3DBB21148194675
:100AB00001F032FD4FF47A70FFF7C2FD0D48114985
:100AC00001F086FD0346002BE0D00A48012101F029
:100AD000E3FC4FF47A70FFF7B3FD06480A4901F0D2
:100AE000A7FD0346002BF0D1012318460837BD4669
:100AF00080BD00BF005400400100001074000020C1
:100B000082000700840007001000001080B582B04A
:100B100000AF03460A46FB711346BB7101E0FFF7C5
:100B20001DFF40484FF4003101F082FD0346002BC9
:100B3000F5D13C48012101F08FFC4FF47A70FFF7AA
:100B40007FFD3848384901F073FD0346002BF0D093
:100B5000364B00221A80354B1B885A1C91B2334AFF
:100B60001180032B00D159E02E487221002201F0A0
:100B7000F1FC4FF47A70FFF763FD2A482C4901F02D
:100B800027FD0346002BE6D0284B00221A80274B76
:100B90001B885A1C91B2254A1180032B00D13DE0DD
:100BA000FB7963F07F03DBB21E48194601F0B4FC09
:100BB0004FF47A70FFF744FD1A481E4901F008FD12
:100BC0000346002BE3D0194B00221A80174B1B88D9
:100BD0005A1C91B2154A1180032B00D11EE0BB793B
:100BE0001048194601F098FC4FF47A70FFF728FD81
:100BF0000C48104901F0ECFC0346002BE6D00948F4
:100C0000012101F049FC4FF47A70FFF719FD054806
:100C1000094901F00DFD0346002BF0D10837BD4610
:100C200080BD00BF0054004001000010740000208F
:100C300082000700840007001000001080B500AF9C
:100C400000200021FFF762FF0220FF21FFF75EFF77
:100C50000E200821FFF75AFF0F202021FFF756FF33
:100C600080BD00BF80B582B000AF0023FB80634A27
:100C7000624B1B889BB243F480639BB2138001E0FC
:100C8000FFF76CFE5D484FF4003101F0D1FC0346E4
:100C9000002BF5D1594A594B1B889BB243F4807302
:100CA0009BB213804FF47A70FFF7CAFC5348544943
:100CB00001F0BEFC0346002BECD0524B00221A8000
:100CC000504B1B885A1C91B24E4A1180032B02D103
:100CD0004FF6FF738EE0494B72221A824FF47A70FE
:100CE000FFF7AEFC4548484901F072FC0346002B73
:100CF000E6D0444B00221A80424B1B885A1C91B20A
:100D0000404A1180032B02D14FF6FF7372E03B4B38
:100D1000B8221A824FF47A70FFF792FC37483B49A9
:100D200001F086FC0346002BE6D0344A334B1B8887
:100D30009BB243F480739BB213804FF47A70FFF739
:100D40007FFC2E482E4901F073FC0346002BECD0AB
:100D50002C4B1B885A1C91B22A4A1180032B02D1BA
:100D60004FF6FF7346E0254B73221A824FF47A70D8
:100D7000FFF766FC2148264901F02AFC0346002BB8
:100D8000E6D01E484FF4006101F002FC1B48002130
:100D900001F0A2FB00BF19481E4901F019FC0346EF
:100DA000002BF8D0154801F0C7FB0346BB8000BFFD
:100DB0001248184901F00CFC0346002BF8D00F48EC
:100DC00001F0BAFB0346FB800C48012101F064FBF3
:100DD0004FF47A70FFF734FC08480F4901F028FC03
:100DE0000346002BF0D1FB881B029AB2BB88134349
:100DF0009BB29BB218460837BD4680BD00540040E8
:100E00000100001074000020820007008000001024
:100E100002000300400003001000001080B487B0FF
:100E200000AF786039604FF6FF73FB8200233B61AF
:100E300017E03B697A6813441A78FB8A1B0A9BB255
:100E4000DBB25340FB73FB7B0B4A32F813309AB290
:100E5000FB8A1B029BB253409BB2FB823B6901336E
:100E60003B613A693B689A42E3DBFB8A18461C37D0
:100E7000BD465DF8047B704750010020B0B487B0D8
:100E800000AF0346FB804FF001024FF00003C7E9BB
:100E900004230023FB810023FB8110E0D7E9042316
:100EA000921843EB03039D0045EA927594001219D2
:100EB00043EB0503C7E90423FB890133FB81FA896E
:100EC000FB889A42EAD3D7E90423104619461C3717
:100ED000BD46B0BC704700BFB0B586B000AF78600B
:100EE0000B467B804FF000024FF00003C7E904235C
:100EF0000023FB810023FB8121E0FB891846FFF7DB
:100F0000BDFF7A88FB89D31A013B7A6813441B78AA
:100F1000303B1A464FEAE27302FB01F500FB03F493
:100F20002C44A0FB0223E1180B46D7E90401121858
:100F300043EB0103C7E90423FB890133FB81FA89F1
:100F40007B889A42D9D3D7E904231046194618372B
:100F5000BD46B0BD90B58BB000AF786007F10C0313
:100F600000221A60043300221A60043300221A603F
:100F7000043300221A60043300221A600433002371
:100F80003B8100237B6200233B6200237B6218E1EC
:100F9000914A7B6A13441B785B2B00F00E815B2B1C
:100FA00007DC2C2B1FD03A2B0BD0222B00F0058115
:100FB000F6E07B2B00F001817D2B14D05D2B12D04D
:100FC000EEE007F1080207F10C031046194601F0A4
:100FD00087FE07F10C0318460021142201F032FEAF
:100FE00000233B62EAE03B7A413B132B00F2BB80DB
:100FF00001A252F823F000BFB51000086F100008DE
:101000001511000867110008671100086711000832
:1010100067110008871000089D100008671100087C
:1010200067110008671100086711000849100008DF
:1010300067110008671100086711000867110008B0
:101040005B100008DF1000087B689A1C07F10C0396
:101050001046194601F044FE85E07B6803F1160254
:1010600007F10C031046194601F03AFE7BE007F148
:101070000C0318460421FFF72FFF02460B4692B2DD
:101080007B685A856FE007F10C0318460821FFF7CB
:1010900023FF02460B467B689A6364E007F10C036A
:1010A00018460D21FFF718FF02460B467968C1E983
:1010B0000C2358E07B7A312B06D13B7B9BB2303B33
:1010C0009AB27B689A8709E07B7A322B06D13B7B08
:1010D0009BB2303B9AB27B68DA8744E043E07B689E
:1010E000B3F808319BB29AB2013292B291B27A68E7
:1010F000A2F808111CB207F10C0318460421FFF7EF
:10110000EBFE02460B4691B27B6804F1200223F805
:10111000121028E07B68B3F8D2319BB29AB2013248
:1011200092B291B27A68A2F8D2111CB207F10C0304
:1011300018460221FFF7D0FE02460B4691B27A68AC
:1011400004F184035B0013440A465A8007F10C0340
:1011500018460221FFF7C0FE02460B4692B27B689A
:10116000A3F8D42100BF07F10C0318460021142274
:1011700001F068FD00233B62174A7B6A13441B7829
:101180005D2B02D17B6A01337B62134A7B6A134475
:101190001B78242B03D17B6A01337B620EE00DE0C8
:1011A0003B6A5A1C3A620C497A6A0A44127807F17F
:1011B00028010B4403F81C2C00E000BF7B6A0133BC
:1011C0007B62064B1B687A6A9A42FFF4E1AE012308
:1011D00018462C37BD4690BD5003002078000020F3
:1011E00080B483B000AF0346FB80FB880133FB80F3
:1011F000FB88072B01D90023FB80FB8818460C379E
:10120000BD465DF8047B704780B582B000AF786062
:101210007B6800221A807B68023318460021142262
:1012200001F010FD7B68163318460021142201F0EE
:1012300009FD7B6800225A8579684FF000024FF063
:101240000003C1E90C237B6800229A637B680022BB
:101250009A877B680022DA877B6840331846002132
:10126000642201F0EFFC7B680022A3F808217B6870
:1012700003F5857318460021642201F0E3FC7B68C6
:101280000022A3F8D2217B680022A3F8D4210837DA
:10129000BD4680BD80B584B000AF794B1B68012B83
:1012A00061D10020FFF7B2FB0346BB600023FB6067
:1012B00002E0FB680133FB60FB68012BF9D90020D9
:1012C0000521FFF723FC0023FB6002E0FB680133EC
:1012D000FB60FB68012BF9D9FFF7C4FC0346FB80D8
:1012E0000023FB6002E0FB680133FB60FB68092B15
:1012F000F9D9FB88B3F5487F2BD3624B1B68624A50
:101300004FF4EC7101FB03F313441B88002B16D13F
:101310005E48522100F0B0FE0023FB6002E0FB6853
:101320000133FB60FB68632BF9D9564B1B689BB2FA
:1013300030339BB25548194600F09EFE17E0514BE2
:101340001B689BB21846FFF74BFF02464D4B1A60D5
:1013500093E04C4B1B689BB21846FFF741FF0246D7
:10136000484B1A6089E0464B1B68022B0DD1474859
:1013700040F22551012200F037FE454B1B68454ADB
:1013800013603F4B03221A6077E03D4B1B68032B31
:1013900007D1414B1B68002B6FD0394B04221A60D8
:1013A0006BE0374B1B68042B67D13C4B1B683C48F8
:1013B0001946FFF733FD03463B603A4B1B881A463C
:1013C0003B689A4243D12F4B1B682F4A4FF4EC7174
:1013D00001FB03F3134401221A802A4B1B684FF4CC
:1013E000EC7202FB03F3284A13441846FFF7B2FDE0
:1013F0002648412100F040FE0023FB6002E0FB682C
:101400000133FB60FB68632BF9D9244B1B68023B5B
:10141000234AD35C242B03D0194B02221A6026E006
:10142000174B01221A60174B1B68174A4FF4EC71D7
:1014300001FB03F3134402221A80124B1B689BB278
:101440001846FFF7CDFE02460E4B1A600FE00F481C
:101450004E2100F011FE0023FB6002E0FB68013327
:10146000FB60FB68632BF9D9054B02221A600A4B1B
:1014700000221A60094B00221A601037BD4680BD59
:1014800014000020640000201804002000380140EF
:101490004401002048010020600000207800002066
:1014A000500300204C01002080B483B000AF78606E
:1014B0000AE00A4B1B685A1C08490A607A68511CEA
:1014C00079601178064AD1547B681B78002BF0D1E3
:1014D0000C37BD465DF8047B704700BF68000020F4
:1014E0007C00002090B58BB000AFC7E90201134625
:1014F000FB8007F1100300221A60043300221A60F7
:10150000043300221A60043300221A8002330022BE
:101510001A70013330233B740023FB840023FB84C7
:1015200038E0FB8C1846FFF7A9FC02460B46D7E9CA
:10153000020101F0B1F802460B46104619464FF081
:101540000A024FF0000301F0A7F813463B62FA8845
:10155000FB8CD31A5C1EFB8C1846FFF78FFC0246EF
:101560000B46D7E9020101F097F802460B461046F8
:1015700019464FF00A024FF0000301F08DF8D3B284
:101580003033DAB207F12803234403F8182CFB8C1C
:101590000133FB84FA8CFB889A42C2D307F1100313
:1015A00018462C37BD4690BD80B582B000AF0346CB
:1015B000FB7100BF0748802100F080FD0346002B2F
:1015C000F8D0FB799BB20348194600F055FD083767
:1015D000BD4680BD0044004080B582B000AF786059
:1015E00006E07B685A1C7A601B781846FFF7DCFF20
:1015F0007B681B78002BF4D10837BD4680BD00BF47
:1016000080B483B000AF0346FB71064B1B685A1CC5
:1016100004490A600449FA79CA540C37BD465DF89A
:10162000047B7047680000207C00002080B58AB0F1
:1016300000AF03463960FB7107F1100300221A6006
:10164000043300221A60043300221A60043300229B
:101650001A80023300221A700133FB79472B06D11E
:1016600007F11003C24A07CA83E8070003E007F145
:101670001003C04A1A60C0480021C82201F0E2FAF3
:10168000BE4B00221A607B20FFF7BAFF00237B626B
:101690009DE12220FFF7B4FF07F110027B6A13449B
:1016A0001B781846FFF7ACFF07F110027B6A134462
:1016B0001B78412B09D17B6A013307F128021344BF
:1016C00013F8183C1846FFF79BFF2220FFF798FFFE
:1016D0003A20FFF795FF07F110027B6A13441B784D
:1016E000413B132B33D801A252F823F03D170008D9
:1016F0004F170008471700084F1700084F1700083A
:101700004F1700084F1700083D1700083D17000845
:101710004F1700084F1700083D1700084F17000823
:101720003D1700084F1700083D1700084F17000825
:101730004F1700083D1700084717000822233B7386
:1017400022237B7304E05B233B735D237B7300BF29
:101750003B7B1846FFF754FF07F110027B6A1344E6
:101760001B78413B132B00F20F8101A252F823F0AA
:1017700041180008231800080319000889190008F7
:10178000891900088919000889190008D317000869
:10179000F11700088919000889190008771800084E
:1017A000891900080B18000889190008C1170008DA
:1017B00089190008891900081718000897180008E7
:1017C0006F4B1B88DBB23033DBB21846FFF718FFD4
:1017D000DBE03B689B6B1A464FF00003104619464E
:1017E0000822FFF77FFE03461846FFF75DFECCE0B8
:1017F0003B68D3E90C23104619460D22FFF772FE11
:1018000003461846FFF750FEBFE03B680233184618
:10181000FFF74AFEB9E03B6816331846FFF744FE6F
:10182000B3E03B685B8D9AB24FF000031046194657
:101830000422FFF757FE03461846FFF735FEA4E0E3
:101840007B6A013307F12802134413F8183C312B4B
:1018500008D13B689B8FDBB23033DBB21846FFF711
:10186000CFFE92E03B68DB8FDBB23033DBB2184651
:10187000FFF7C6FE89E03B68B3F808311AB24FEAB9
:10188000E273104619460122FFF72CFE0346184664
:10189000FFF70AFE79E000233B622EE03B68B3F8D5
:1018A00008311BB25A1E3B68203233F812309AB20C
:1018B0004FF00003104619460422FFF713FE0346BB
:1018C0001846FFF7F1FD3B68B3F808319BB29BB2B5
:1018D000013B9BB29AB23B68A3F808213B68B3F87E
:1018E0000831002B00D10BE03B6A142B02D02548B5
:1018F000FFF7DAFD3B6A01333B623B6A142BCDD91B
:1019000043E000233B622FE03B68B3F8D2311BB2C7
:10191000013B3A6884335B0013445B889AB24FF012
:101920000003104619460222FFF7DCFD0346184665
:10193000FFF7BAFD3B68B3F8D2319BB29BB2013BD3
:101940009BB29AB23B68A3F8D2213B68B3F8D2317C
:10195000002B00D10BE07B6A142B02D00948FFF763
:10196000A3FD3B6A01333B623B6A142BCCD90CE0EC
:10197000F82D0008505443007C000020680000202F
:1019800070000020042E000800BF7B7B1846FFF784
:1019900037FE07F110027B6A13441B784C2B09D0E9
:1019A00007F110027B6A13441B78432B02D02C20D2
:1019B000FFF726FE07F110027B6A13441B78412BC8
:1019C00002D17B6A01337B627B6A01337B6207F160
:1019D0001003184601F0E2F902467B6A9A423FF68C
:1019E00058AE7D20FFF70CFE2837BD4680BD00BFF6
:1019F00080B582B000AF0023FB80854B1B68012BB4
:101A00001AD18448202100F059FB0346002B00F036
:101A1000FB80804800F042FB0346DAB27E4B1A702E
:101A20007D4B1B78432B40F0EF807C4B01221A60EA
:101A3000774B02221A60E7E0754B1B68022B27D117
:101A4000774B1B881946774A4FF4EC7303FB01F37D
:101A500013441B88022B11D1714B1B881946714A04
:101A60004FF4EC7303FB01F3134403221A80684B19
:101A700003221A60694B01221A60C5E0684B1B887B
:101A80001846FFF7ADFB03469AB2654B1A80BBE0E0
:101A90005F4B1B68032B55D1604B1B68012B0DD18D
:101AA0005F4B1B881A464FF4EC7303FB02F35D4A4D
:101AB000134447201946FFF7B9FD10E0574B1B6848
:101AC000022B0CD1564B1B881A464FF4EC7303FBC8
:101AD00002F3544A134442201946FFF7A7FD524B24
:101AE0001B6852481946FFF799F90346BB80BB882B
:101AF0001B0A9BB2DBB23B70BB88DBB27B70484BEE
:101B00001B881946474A4FF4EC7303FB01F3134457
:101B100003F584731B88002B03D12420FFF770FD8D
:101B200002E02020FFF76CFD3B461846FFF7BCFCA7
:101B30003E48FFF751FD3E4B00221A80344B0422F1
:101B40001A6061E0324B1B68042B5DD131482021C3
:101B500000F0B4FA0346002B56D02E4800F09EFA4F
:101B60000346DAB22C4B1A702B4B1B78412B38D121
:101B70002A4B1B68012B06D1284B02221A60244BEA
:101B800003221A6040E0254B1B68022B3CD1264BF8
:101B90001B68033B254AD35C242B1BD11F4B01221E
:101BA0001A601B4B02221A601D4B1B881A464FF409
:101BB000EC7303FB02F31B4A13441846FFF724FBA4
:101BC000174B1B881846FFF70BFB03469AB2144BC2
:101BD0001A8019E0114B02221A600D4B03221A6081
:101BE00012E00D4B1B784E2B0ED1114B1B885A1C4B
:101BF00091B20F4A1180012B03D1054B02221A60CA
:101C000002E00A48FFF7E8FC0837BD4680BD00BF88
:101C10003800002000440040D81200203C00002082
:101C20007000002018040020680000207C000020C4
:101C30007200002080B584B000AF0023BB60FEF7C7
:101C400013FDFEF73DFDFEF783FDFEF7ABFDFEF74E
:101C5000BFFDFEF7DFFDFEF7DBFC0020FEF7D6FE42
:101C600003467B600220FEF7EBFCFEF7E7FF0A204D
:101C7000FEF7E6FC0620FEF7C9FE03467B60022065
:101C8000FEF7DEFCFEF7DAFF0A20FEF7D9FC0E486D
:101C90004FF4E041FEF754FC0023FB600CE0FB68CE
:101CA0004FF4EC7202FB03F3084A13441846FFF7A3
:101CB000ABFAFB680133FB60FB68072BEFD9FFF73A
:101CC000E9FAFFF795FEFAE7000C0140180400203E
:101CD00080B487B000AF786000237B6100233B6154
:101CE0000023FB600023BB604D4B5B6803F00C03DB
:101CF0007B617B69042B07D0082B09D0002B34D1E2
:101D00007B68484A1A6034E07B68464A1A6030E0D3
:101D1000434B5B6803F470133B61414B5B6803F416
:101D20008033FB603B699B0C02333B61FB68002BFB
:101D300006D13B693C4A02FB03F27B681A6013E060
:101D4000374B5B6803F40033002B06D03B69364AFF
:101D500002FB03F27B681A6006E03B69314A02FB32
:101D600003F27B681A6004E003E07B682D4A1A6086
:101D700000BF2B4B5B6803F0F0037B617B691B09A1
:101D80007B612A4A7B6913441B78DBB2BB607B68AA
:101D90001A68BB68DA407B685A60214B5B6803F4C1
:101DA000E0637B617B691B0A7B61204A7B6913448A
:101DB0001B78DBB2BB607B685A68BB68DA407B6823
:101DC0009A60174B5B6803F460537B617B69DB0AA5
:101DD0007B61164A7B6913441B78DBB2BB607B686E
:101DE0005A68BB68DA407B68DA600D4B5B6803F4C5
:101DF00040437B617B699B0B7B610D4A7B6913448C
:101E00001B78DBB2BB607B68DA68BB68B2FBF3F2BD
:101E10007B681A611C37BD465DF8047B704700BFC4
:101E20000010024000127A0000093D00400000202E
:101E30005000002080B58CB000AF7860396000237E
:101E4000FB620023BB6200237B6200233B62002312
:101E5000FB617B68FB617B681B8A9BB2FB62FA6A51
:101E60004CF6FF731340FB623B68DB881A46FB6A43
:101E70001343FB62FB6A9AB27B681A827B689B8978
:101E80009BB2FB62FA6A4EF6F3131340FB623B68A7
:101E90009A883B681B8913439AB23B685B8913435A
:101EA0009BB21A46FB6A1343FB62FB6A9AB27B68D9
:101EB0009A817B689B8A9BB2FB62FA6A4FF6FF436A
:101EC0001340FB623B689B891A46FB6A1343FB6223
:101ED000FB6A9AB27B689A8207F108031846FFF7FB
:101EE000F7FEFB692E4A934202D17B69BB6201E097
:101EF0003B69BB627B689B899BB29BB21BB2002B88
:101F00000CDABA6A13469B0013449A001A443B68E1
:101F10001B685B00B2FBF3F37B620BE0BA6A13460B
:101F20009B0013449A001A443B681B689B00B2FB59
:101F3000F3F37B627B6A1B4AA2FB03235B091B0151
:101F4000FB62FB6A1B09642202FB03F37A6AD31A61
:101F50003B627B689B899BB29BB21BB2002B0CDA65
:101F60003B6ADB0032330F4AA2FB03235B0903F019
:101F70000703FA6A1343FB620BE03B6A1B0132332F
:101F8000084AA2FB03235B0903F00F03FA6A134319
:101F9000FB62FB6A9AB27B681A813037BD4680BD0E
:101FA000003801401F85EB5180B483B000AF7860EA
:101FB0000B46FB70FB78002B08D07B689B899BB29B
:101FC00043F400539AB27B689A8107E07B689B894F
:101FD0009BB223F400539AB27B689A810C37BD46BA
:101FE0005DF8047B704700BF80B487B000AF7860B5
:101FF0000B467B8013467B7000233B610023FB6014
:102000000023BB6000237B617B687B617B88DBB244
:102010005B09DBB23B617B8803F01F03FB60FB685D
:10202000012202FA03F3BB603B69012B03D17B69F8
:102030000C337B6109E03B69022B03D17B691033D0
:102040007B6102E07B6914337B617B78002B06D0D7
:102050007B697A691168BA680A431A6006E07B698D
:102060007A691168BA68D2430A401A601C37BD46C3
:102070005DF8047B704700BF80B483B000AF786028
:102080000B467B807B88C3F308039AB27B689A80F7
:102090000C37BD465DF8047B704700BF80B483B049
:1020A00000AF78607B689B889BB2C3F308039BB248
:1020B00018460C37BD465DF8047B704780B485B088
:1020C00000AF78600B467B800023FB737B681B8826
:1020D0009AB27B8813409BB2002B02D00123FB7382
:1020E00001E00023FB73FB7B18461437BD465DF807
:1020F000047B704780B487B000AF78600B467B806C
:102100000023FB6000237B610023BB600023FB7482
:102110007B88DBB25B09DBB2BB607B8803F01F030B
:102120007B617B69012202FA03F37B61BB68012BAF
:1021300007D17B689B899BB21A467B6913407B6100
:1021400011E0BB68022B07D17B681B8A9BB21A4641
:102150007B6913407B6106E07B689B8A9BB21A46D1
:102160007B6913407B617B881B0A9BB2FB60FB6829
:10217000012202FA03F3FB607B681B889BB21A46BC
:10218000FB681340FB607B69002B05D0FB68002BCC
:1021900002D00123FB7401E00023FB74FB7C184692
:1021A0001C37BD465DF8047B704700BF80B483B028
:1021B00000AF7860054A7B6843F0BF6343F40033A7
:1021C000D3600C37BD465DF8047B704700ED00E03E
:1021D00080B487B000AF786000237B6100233B614F
:1021E0000F23FB607B68DB78002B3AD0274BDB6842
:1021F000DB4303F4E0631B0A7B617B69C3F10403E7
:102200003B617B69FA6822FA03F3FB607B685B78C9
:102210001A463B6902FA03F37B617B689B781A4696
:10222000FB6813407A6913437B617B691B017B6107
:10223000174A7B681B787969C9B213440A4683F848
:102240000023134A7B681B785B09DBB218467B6866
:102250001B7803F01F03012101FA03F342F8203039
:102260000FE00B497B681B785B09DBB218467B6883
:102270001B7803F01F0301229A4000F1200341F86C
:1022800023201C37BD465DF8047B704700ED00E05D
:1022900000E100E080B58AB000AF786039600023CB
:1022A000FB8400237B840423BB84574BFB617B6846
:1022B0009B88FB84FB8C23F03F03FB8407F108031E
:1022C0001846FFF705FD3B69FB61FB694F4AA2FB1E
:1022D00003239B0C7B84FA8C7B8C1343FB847B68ED
:1022E000FA8C9A807B681B889BB223F001039AB218
:1022F0007B681A800023FB843B681B68444A934236
:1023000015D83B681B685B00FA69B2FBF3F3BB842A
:10231000BB8C032B01D80423BB84FA8CBB8C1343E6
:10232000FB847B8C01339AB27B681A8440E03B6863
:10233000DB884BF6FF72934209D13B681A6813465B
:102340005B001344FA69B2FBF3F3BB840EE03B6815
:102350001A6813469B0013449A001344FA69B2FBAF
:10236000F3F3BB84BB8C43F48043BB84BB8CC3F3CB
:102370000B03002B03D1BB8C43F00103BB84BA8C4D
:10238000FB8C13439BB26FEA43436FEA5343FB84D6
:102390007B8C4FF4967202FB03F31E4A82FB0312FE
:1023A0009211DB17D31A9BB201339AB27B681A845D
:1023B0007B68FA8C9A837B681B889BB243F001038D
:1023C0009AB27B681A807B681B88FB84FB8C23F4A1
:1023D000816323F00203FB843B689A883B685B8936
:1023E00013439AB2FB8C1343FB847B68FA8C1A80EC
:1023F0003B689A893B681B8913439AB27B681A81B0
:102400002837BD4680BD00BF00127A0083DE1B4323
:10241000A0860100D34D621080B483B000AF786015
:102420000B46FB70FB78002B08D07B681B889BB2A7
:1024300043F001039AB27B681A8007E07B681B882F
:102440009BB223F001039AB27B681A800C37BD4619
:102450005DF8047B704700BF80B483B000AF786044
:102460000B46FB70FB78002B08D07B681B889BB267
:1024700043F480739AB27B681A8007E07B681B88FC
:102480009BB223F480739AB27B681A800C37BD46E6
:102490005DF8047B704700BF80B483B000AF786004
:1024A0000B46FB70FB78002B08D07B681B889BB227
:1024B00043F400739AB27B681A8007E07B681B883C
:1024C0009BB223F400739AB27B681A800C37BD4626
:1024D0005DF8047B704700BF80B483B000AF7860C4
:1024E0000B46FB70FB78002B08D07B681B889BB2E7
:1024F00043F480639AB27B681A8007E07B681B888C
:102500009BB223F480639AB27B681A800C37BD4675
:102510005DF8047B704700BF80B483B000AF786083
:102520000B46FB70FB789AB27B681A820C37BD466B
:102530005DF8047B704700BF80B483B000AF786063
:102540007B681B8A9BB2DBB218460C37BD465DF830
:10255000047B704780B483B000AF78600B46FB709B
:102560001346BB70BB78002B04D0FB7843F001030B
:10257000FB7003E0FB7823F00103FB70FB789AB259
:102580007B681A820C37BD465DF8047B704700BF3C
:1025900080B483B000AF78600B467B807B88B3F556
:1025A000006F08D17B681B889BB243F400639AB22A
:1025B0007B681A8007E07B681B889BB223F400636A
:1025C0009AB27B681A800C37BD465DF8047B704771
:1025D00080B487B000AF7860396000233B6100238E
:1025E000FB600023BB600023FB757B689B8A9BB26A
:1025F000FB607B681B8B9BB2BB60BB681B04BB6032
:10260000FA68BB68134323F07F433B613A693B6838
:102610001A403B689A4202D10123FB7501E0002376
:10262000FB75FB7D18461C37BD465DF8047B704783
:1026300080B487B000AF786039600023FB75002359
:102640003B610023FB607B68FB603B681B0F3B61C9
:102650003B6823F07F433B603B69002B03D0FB6862
:102660001433FB6005E03B681B0C3B60FB681833D0
:10267000FB60FB681A683B681340002B02D0012303
:10268000FB7501E00023FB75FB7D18461C37BD463A
:102690005DF8047B704700BF4BB942B9002908BF01
:1026A000002802D04FF0FF31084600F03BB882B05E
:1026B000EC462DE9005000F01DF8DDF804E002B012
:1026C0000CBC70472DE9F041069C904606460F462B
:1026D0001D4600F029F808FB01FCA8FB002300FBC5
:1026E00005C5B21A2B4467EB03038646C4E90023F1
:1026F000BDE8F0812DE9F843089E174680468946DB
:102700001D4600F067F900FB05F3A0FB074507FB3A
:102710000137B8EB04043D4469EB0505C6E9004503
:10272000BDE8F883704700BF00292DE9F043C0F2EF
:10273000A8800026002BC0F29E8081468E469046DF
:102740009C46174604460D46002B3DD18A4259D976
:10275000B2FA82F33BB1C3F120029D4020FA02F2AB
:102760009F4015439C40390CB5FBF1F01FFA87FEE2
:1027700001FB10550EFB00F3220C42EA0545AB426B
:1027800009D9ED1900F1FF3280F00B81AB4240F224
:10279000088102383D44ED1AB5FBF1F301FB1355F6
:1027A0000EFB03FEA4B244EA0545AE4508D9ED1977
:1027B00003F1FF3280F0F780AE4540F2F480023B37
:1027C00043EA0043002203E08B420FD90022134664
:1027D000341C18BF012460424FF0000565EB450131
:1027E0005840514000196941BDE8F083B3FA83F2C3
:1027F000002A40F089808B4202D3804500F2E280BB
:102800000123E5E712B90123B3FBF2F7B7FA87F822
:10281000B8F1000F3BD1ED1B4FEA174C1FFA87FEB2
:102820000122B5FBFCF00CFB10550EFB00F3210C54
:1028300041EA0545AB4207D9ED1900F1FF3102D25B
:10284000AB4200F2C3800846ED1AB5FBFCF30CFB6B
:1028500013550EFB03FEA4B244EA0545AE4507D965
:10286000ED1903F1FF3102D2AE4500F2AD800B4607
:1028700043EA0043ACE752426FEA060663EB4303C8
:102880005BE7404261EB41014FF0FF3652E707FA48
:1028900008F7C8F1200225FA02F34FEA174CB3FB00
:1028A000FCF11FFA87FE0CFB113324FA02F205FA41
:1028B00008F50EFB01F92A43100C40EA0343994541
:1028C00004FA08F407D9DB1901F1FF3078D29945F1
:1028D00076D902393B44C9EB0303B3FBFCF00CFB94
:1028E00010330EFB00F592B242EA03439D4207D932
:1028F000DB1900F1FF325FD29D425DD902383B44C3
:102900005D1B40EA01428CE7C2F1200328FA03F183
:102910000CFA02FC41EA0C0C4FEA1C402EFA03F1BF
:10292000B1FBF0F51FFA8CF700FB151129FA03F340
:102930000EFA02FE07FB05F943EA0E0E4FEA1E43AC
:1029400043EA0141894508FA02F808D911EB0C0164
:1029500005F1FF3332D2894530D9023D6144C9EBDC
:102960000101B1FBF0F300FB131107FB03F71FFAA2
:102970008EFE4EEA014E774508D91EEB0C0E03F190
:10298000FF3117D2774515D9023BE64443EA0543A8
:10299000A3FB0889C7EB0E0ECE4509D305D0002254
:1029A00016E71046F7E613460AE794404445F6D288
:1029B000013BF4E70B46E9E71046A1E71D46CEE7E9
:1029C000014688E7134603E7023B51E702383D44DE
:1029D0003AE700BF2DE9F043002B44D18A42154667
:1029E00004464FD9B2FA82F70E464FB1C7F1200321
:1029F000B94020FA03F602FA07F50E4300FA07F48D
:102A00002F0CB6FBF7F01FFA85FE07FB10620EFBDA
:102A100000F1260C46EA0243994209D95B1900F1FC
:102A2000FF3280F0EE80994240F2EB8002382B4476
:102A3000591AB1FBF7F307FB13110EFB03FEA4B207
:102A400044EA01418E4508D9491903F1FF3280F06B
:102A5000DA808E4540F2D780023B43EA00400026F0
:102A60003146BDE8F0838B4247D8B3FA83F6002E97
:102A700048D18B4202D3824200F2CF8001203146FE
:102A8000BDE8F08312B90125B5FBF2F5B5FA85FC76
:102A9000BCF1000F78D1491B2F0C1FFA85FE0126CF
:102AA000B1FBF7F007FB10110EFB00F2230C43EA19
:102AB00001418A4207D9491900F1FF3302D28A4203
:102AC00000F2BC801846891AB1FBF7F307FB13111B
:102AD0000EFB03FEA4B244EA0142964508D95219FE
:102AE00003F1FF3180F09180964540F28E80023BE9
:102AF00043EA00403146BDE8F083002630463146C7
:102B0000BDE8F083C6F1200422FA04F5B3402B435C
:102B100021FA04F74FEA1348B7FBF8FC1FFA83F9D0
:102B200008FB1C7720FA04FE01FA06F509FB0CF4F9
:102B30004EEA05054FEA154E4EEA0747BC4202FA37
:102B400006F204D9FF180CF1FF3168D38C463F1B05
:102B5000B7FBF8F408FB147709FB04F9ADB245EABA
:102B60000741894504D9C91804F1FF355DD32C46C6
:102B700044EA0C44A4FB0223C9EB0101994249D366
:102B800045D0204600266BE7CCF1200405FA0CF571
:102B900021FA04F32A0CB3FBF2F61FFA85FE02FBBE
:102BA000163820FA04F701FA0CF10EFB06F90F4370
:102BB0003C0C44EA0843994500FA0CF407D95B1928
:102BC00006F1FF3138D2994536D9023E2B44C9EB84
:102BD0000303B3FBF2F002FB10330EFB00F1BFB2B4
:102BE00047EA0343994207D95B1900F1FF3721D225
:102BF00099421FD902382B441746591A40EA064613
:102C00004EE7104614E7134627E70B4670E7B0403F
:102C10009042B6D2601E002622E7304620E7BC4232
:102C200094D9ACF1020C1F4491E789459FD9023C2D
:102C300019449DE73846DFE70E46C8E702382944C5
:102C400041E700BF70B4840746D0541E002A41D02B
:102C5000CDB2034602E0621EE4B3144603F8015B02
:102C60009A07F8D1032C2ED9CDB245EA05250F2CB1
:102C700045EA054519D9264603F11002103E0F2EEC
:102C800042F8105C42F80C5C42F8085C42F8045CC4
:102C900002F11002F2D8A4F1100222F00F0204F0A7
:102CA0000F041032032C13440DD91E462246043A59
:102CB000032A46F8045BFAD8221F22F003020432EA
:102CC000134404F003042CB1C9B21C4403F8011BE3
:102CD000A342FBD170BC704714460346C2E700BF55
:102CE00080EA0102844612F0030F4FD111F0030F66
:102CF00032D14DF8044D11F0040F51F8043B0BD0C4
:102D0000A3F101329A4312F0803F04BF4CF8043B18
:102D100051F8043B16D100BF51F8044BA3F1013226
:102D20009A4312F0803FA4F101320BD14CF8043BDE
:102D3000A24312F0803F04BF51F8043B4CF8044B0F
:102D4000EAD023460CF8013B13F0FF0F4FEA332380
:102D5000F8D15DF8044B704711F0010F06D011F85F
:102D6000012B0CF8012B002A08BF704711F0020F4D
:102D7000BFD031F8022B12F0FF0F16BF2CF8022B38
:102D80008CF8002012F47F4FB3D1704711F8012B5B
:102D90000CF8012B002AF9D1704700BF20F0030185
:102DA00010F00300C0F1000051F8043B00F1040CE6
:102DB0004FEACC0C6FF000021CBF22FA0CF2134356
:102DC0004FF0010C4CEA0C2C4CEA0C4CA3EB0C021F
:102DD00022EA030212EACC1204BF51F8043B043089
:102DE000F4D0C2F1000102EA0102B2FA82F2C2F1A9
:102DF0001F0200EBD20070475048494E5342413108
:082E000041324C002C000000DF
:082E080020F9FF7F010000002A
:102E100000A24A04000000000000000001020304B8
:102E20000607080901000000000000000010000073
:102E300000200000003000000040000000500000B2
:102E400000600000007000000200000002000000AE
:102E50000000000001020304010203040607080940
:042E6000020406085A
:0400000508000000EF
:00000001FF
